:100000000000022061070000890700008B07000044
:100010008D0700008F07000091070000000000001E
:100020000000000000000000000000009307000036
:1000300095070000000000009707000099070000E6
:100040009B0700009B0700009B0700009B07000028
:100050009B0700009B0700009B0700009B07000018
:100060009B0700009B0700009B0700009B07000008
:100070009B0700009B0700009B0700009B070000F8
:100080009B0700009B0700009B0700009B070000E8
:100090009B0700009B0700009B0700009B070000D8
:1000A0009B0700009B0700009B0700009B070000C8
:1000B0009B0700009B0700000000000000000000FC
:1000C0009B0700009B0700009B0700009B070000A8
:1000D0009B0700009B0700009B0700009B07000098
:1000E0009B0700000000000000000000000000006E
:1000F000000000009B070000000000009B070000BC
:1001000000000000000000000000000000000000EF
:1001100000000000000000000000000000000000DF
:1001200000000000000000000000000000000000CF
:1001300000000000000000000000000000000000BF
:1001400000000000000000000000000000000000AF
:10015000000000000000000000000000000000009F
:10016000000000000000000000000000000000008F
:10017000000000000000000000000000000000007F
:10018000000000000000000000000000000000006F
:10019000000000000000000000000000000000005F
:1001A000000000000000000000000000000000004F
:1001B000000000000000000000000000000000003F
:1001C000000000000000000000000000000000002F
:1001D000000000000000000000000000000000001F
:1001E000000000000000000000000000000000000F
:1001F00000000000000000000000000000000000FF
:100200000348044B834202D0034B03B118477047A5
:100210004404002044040020000000000548064972
:100220000B1AD90F01EBA301491002D0034B03B104
:1002300018477047440400204404002000000000D8
:1002400010B5064C237843B9FFF7DAFF044B13B11E
:100250000448AFF300800123237010BD4404002044
:1002600000000000B807000008B5044B1BB10449AA
:100270000448AFF30080BDE80840CFE7000000006D
:1002800048040020B8070000A3F5803A704700BF7B
:10029000154B002B08BF114B9D46FFF7F5FF0021C2
:1002A0008B460F461148124A121A00F079F80C4B8F
:1002B000002B00D098470B4B002B00D09847002014
:1002C000002104000D000B4800F016F800F044F87F
:1002D0002000290000F0ACF900F014F8000008003C
:1002E0000000000000000000000002204404002084
:1002F0006004002025030000002301461A4618462A
:1003000000F09EB808B50021044600F0CDF8044B7B
:100310001868C36B03B19847204600F01DF900BF71
:10032000B407000038B50A4C0A4D641BA4100AD06B
:1003300004F18043013B05EB8305013C55F804398A
:100340009847002CF9D1BDE8384000F02DBA00BF25
:10035000440400204004002070B50D4E0D4D761B66
:10036000B61006D00024013455F8043B9847A64245
:10037000F9D1094E094D761B00F010FAB61006D0DF
:100380000024013455F8043B9847A642F9D170BDCA
:1003900038040020380400204004002038040020E5
:1003A000F0B4860746D0541E002A3CD0CAB2034699
:1003B00002E014F1FF3436D303F8012B9D07F8D186
:1003C000032C29D9CDB245EA05250F2C45EA054570
:1003D00033D9A4F11006360903F1200707EB0617FD
:1003E00003F1100242E9045542E902551032BA42C3
:1003F000F8D1721C14F00C0F03EB021204F00F067C
:1004000013D0331F23F003030433134442F8045B77
:100410009342FBD106F003042CB1C9B21C4403F88B
:10042000011B9C42FBD1F0BC704734461346002CA4
:10043000F3D1F8E714460346C2E71A462646E0E73A
:10044000F0B4184C2568D5F8484114B365681F2DE1
:1004500024DC38B9AB1C0135656044F8231000205A
:10046000F0BC704704EB85060127C6F8882007FA20
:1004700005F2D4F88871022847EA0207C4F88871A7
:10048000C6F80831E6D1D4F88C311A43C4F88C216F
:10049000E0E705F5A674C5F84841D7E74FF0FF300F
:1004A000DEE700BFB40700002DE9F04F244B83B016
:1004B000D3F800B001908A464FF00008DBF848619D
:1004C00096B17468651E0FD4013406EB84040127CD
:1004D000BAF1000F0BD0D4F80031534507D0013DDD
:1004E0006B1CA4F10404F3D103B0BDE8F08F736872
:1004F0002268013BAB420CBF7560C4F80080002A43
:10050000EDD0D6F88811D6F8049007FA05FC1CEA5D
:10051000010F08D1904772684A45CFD1DBF84831C6
:10052000B342DCD0CAE7D6F88C31D4F880101CEA8C
:10053000030F02D101989047EDE708469047EAE79C
:10054000B4070000024B13B10248FFF7D5BE704755
:100550000000000025030000FEE700BF013804286A
:100560000DD8DFE800F0030D16232D004FF0A04357
:10057000194AC3F81C254FF08052C3F8182570475C
:100580004FF0A0434FF01042C3F81C254FF4006217
:10059000F3E74FF0A0434FF40262C3F81C250F4A63
:1005A0002021C2F81C154FF00042E6E74FF0A043AF
:1005B0004FF04042C3F81C252022C3F8182870478A
:1005C0004FF0A043064AC3F81C25044A2021C2F874
:1005D0001C154FF08042D0E7000800400003005097
:1005E000200000104FF0A041104AD1F820051368F8
:1005F00040040DD5012BC4BF03F1FF3313604FF44A
:1006000080414FF0A043C3F820151068FFF7A6BF44
:10061000D1F820150902F8D5042BDCBF0133136093
:100620004FF400014FF0A043EDE700BF300400207D
:100630004FF0A043124A134E83B5C3F83827C3F8CE
:100640005C27114AC3F818254FF400454FF080523B
:100650000E4FC3F80C251C46A846C4F80885019621
:10066000019B5A1E0192002BFAD1C4F80C55009739
:10067000009B5A1E0092002BFAD1FFF7B3FFECE764
:100680000C00030000093D000080001080841E0063
:100690002F4B1B680D2B57D14FF080414FF08052EC
:1006A0000023C1F80C31C1F81031C1F83835294B9D
:1006B000D2F80404C3F82005D2F80804C3F82405CE
:1006C000D2F80C04C3F82805D2F81004C3F82C059E
:1006D000D2F81404C3F83005D2F81804C3F834056E
:1006E000D2F81C04C3F84005D2F82004C3F844052E
:1006F000D2F82404C3F84805D2F82804C3F84C05FE
:10070000D2F82C04C3F85005D2F83004C3F85405CD
:10071000D2F83404C3F86005D2F83804C3F864058D
:10072000D2F83C04C3F86805D2F84004C3F86C055D
:10073000D2F84424C3F87025D1F80034DB0744BF55
:100740006FF00103C1F80034034B044A1A6070478C
:100750003001001000C00040340400200090D0039D
:100760000649074A074B9B1A03DD043BC858D05083
:10077000FBDCFFF78DFFFFF78BFD0000C4070000D7
:100780000000002044040020FEE7FEE7FEE7FEE74D
:10079000FEE7FEE7FEE7FEE7FEE7FEE7F8B500BF8F
:1007A000F8BC08BC9E467047F8B500BFF8BC08BC52
:0C07B0009E46704708000020000000007A
:0807BC00CCFAFF7F01000000F0
:1007C400080000200000000000000000F4020020E7
:1007D4005C030020C40300200000000000000000AF
:1007E4000000000000000000000000000000000005
:1007F40000000000000000000000000000000000F5
:1008040000000000000000000000000000000000E4
:1008140000000000000000000000000000000000D4
:1008240000000000000000000000000000000000C4
:1008340000000000000000000000000000000000B4
:1008440000000000000000000000000000000000A4
:100854000000000000000000000000000000000094
:100864000000000000000000000000000000000084
:1008740001000000000000000E33CDAB34126DE621
:10088400ECDE05000B00000000000000000000008A
:100894000000000000000000000000000000000054
:1008A4000000000000000000000000000000000044
:1008B4000000000000000000000000000000000034
:1008C4000000000000000000000000000000000024
:100BF400010000000090D0034505000069020000D8
:040C040041020000A9
:040000030000076191
:00000001FF
